{
  "contractName": "Token",
  "abi": [
    {
      "inputs": [
        {
          "internalType": "string",
          "name": "_name",
          "type": "string"
        },
        {
          "internalType": "string",
          "name": "_symbol",
          "type": "string"
        },
        {
          "internalType": "uint8",
          "name": "_decimals",
          "type": "uint8"
        },
        {
          "internalType": "uint256",
          "name": "_totalSupply",
          "type": "uint256"
        },
        {
          "internalType": "uint256",
          "name": "_maxSupply",
          "type": "uint256"
        }
      ],
      "stateMutability": "nonpayable",
      "type": "constructor"
    },
    {
      "anonymous": false,
      "inputs": [
        {
          "indexed": true,
          "internalType": "address",
          "name": "owner",
          "type": "address"
        },
        {
          "indexed": true,
          "internalType": "address",
          "name": "spender",
          "type": "address"
        },
        {
          "indexed": false,
          "internalType": "uint256",
          "name": "value",
          "type": "uint256"
        }
      ],
      "name": "Approval",
      "type": "event"
    },
    {
      "anonymous": false,
      "inputs": [
        {
          "indexed": true,
          "internalType": "address",
          "name": "previousOwner",
          "type": "address"
        },
        {
          "indexed": true,
          "internalType": "address",
          "name": "newOwner",
          "type": "address"
        }
      ],
      "name": "OwnershipTransferred",
      "type": "event"
    },
    {
      "anonymous": false,
      "inputs": [
        {
          "indexed": true,
          "internalType": "address",
          "name": "from",
          "type": "address"
        },
        {
          "indexed": true,
          "internalType": "address",
          "name": "to",
          "type": "address"
        },
        {
          "indexed": false,
          "internalType": "uint256",
          "name": "value",
          "type": "uint256"
        }
      ],
      "name": "Transfer",
      "type": "event"
    },
    {
      "inputs": [
        {
          "internalType": "address",
          "name": "",
          "type": "address"
        }
      ],
      "name": "balanceOf",
      "outputs": [
        {
          "internalType": "uint256",
          "name": "",
          "type": "uint256"
        }
      ],
      "stateMutability": "view",
      "type": "function",
      "constant": true
    },
    {
      "inputs": [],
      "name": "decimals",
      "outputs": [
        {
          "internalType": "uint8",
          "name": "",
          "type": "uint8"
        }
      ],
      "stateMutability": "view",
      "type": "function",
      "constant": true
    },
    {
      "inputs": [],
      "name": "maxSupply",
      "outputs": [
        {
          "internalType": "uint256",
          "name": "",
          "type": "uint256"
        }
      ],
      "stateMutability": "view",
      "type": "function",
      "constant": true
    },
    {
      "inputs": [],
      "name": "name",
      "outputs": [
        {
          "internalType": "string",
          "name": "",
          "type": "string"
        }
      ],
      "stateMutability": "view",
      "type": "function",
      "constant": true
    },
    {
      "inputs": [],
      "name": "owner",
      "outputs": [
        {
          "internalType": "address",
          "name": "",
          "type": "address"
        }
      ],
      "stateMutability": "view",
      "type": "function",
      "constant": true
    },
    {
      "inputs": [],
      "name": "renounceOwnership",
      "outputs": [],
      "stateMutability": "nonpayable",
      "type": "function"
    },
    {
      "inputs": [],
      "name": "symbol",
      "outputs": [
        {
          "internalType": "string",
          "name": "",
          "type": "string"
        }
      ],
      "stateMutability": "view",
      "type": "function",
      "constant": true
    },
    {
      "inputs": [],
      "name": "totalSupply",
      "outputs": [
        {
          "internalType": "uint256",
          "name": "",
          "type": "uint256"
        }
      ],
      "stateMutability": "view",
      "type": "function",
      "constant": true
    },
    {
      "inputs": [
        {
          "internalType": "address",
          "name": "newOwner",
          "type": "address"
        }
      ],
      "name": "transferOwnership",
      "outputs": [],
      "stateMutability": "nonpayable",
      "type": "function"
    },
    {
      "inputs": [
        {
          "internalType": "address",
          "name": "account",
          "type": "address"
        },
        {
          "internalType": "uint256",
          "name": "amount",
          "type": "uint256"
        }
      ],
      "name": "mint",
      "outputs": [
        {
          "internalType": "bool",
          "name": "",
          "type": "bool"
        }
      ],
      "stateMutability": "nonpayable",
      "type": "function"
    },
    {
      "inputs": [
        {
          "internalType": "address",
          "name": "account",
          "type": "address"
        },
        {
          "internalType": "uint256",
          "name": "amount",
          "type": "uint256"
        }
      ],
      "name": "burn",
      "outputs": [
        {
          "internalType": "bool",
          "name": "",
          "type": "bool"
        }
      ],
      "stateMutability": "nonpayable",
      "type": "function"
    },
    {
      "inputs": [
        {
          "internalType": "address",
          "name": "recipient",
          "type": "address"
        },
        {
          "internalType": "uint256",
          "name": "amount",
          "type": "uint256"
        }
      ],
      "name": "transfer",
      "outputs": [
        {
          "internalType": "bool",
          "name": "",
          "type": "bool"
        }
      ],
      "stateMutability": "nonpayable",
      "type": "function"
    },
    {
      "inputs": [],
      "name": "getOwner",
      "outputs": [
        {
          "internalType": "address",
          "name": "",
          "type": "address"
        }
      ],
      "stateMutability": "view",
      "type": "function",
      "constant": true
    },
    {
      "inputs": [
        {
          "internalType": "address",
          "name": "owner",
          "type": "address"
        },
        {
          "internalType": "address",
          "name": "spender",
          "type": "address"
        }
      ],
      "name": "allowance",
      "outputs": [
        {
          "internalType": "uint256",
          "name": "",
          "type": "uint256"
        }
      ],
      "stateMutability": "view",
      "type": "function",
      "constant": true
    },
    {
      "inputs": [
        {
          "internalType": "address",
          "name": "spender",
          "type": "address"
        },
        {
          "internalType": "uint256",
          "name": "amount",
          "type": "uint256"
        }
      ],
      "name": "approve",
      "outputs": [
        {
          "internalType": "bool",
          "name": "",
          "type": "bool"
        }
      ],
      "stateMutability": "nonpayable",
      "type": "function"
    },
    {
      "inputs": [
        {
          "internalType": "address",
          "name": "spender",
          "type": "address"
        },
        {
          "internalType": "address",
          "name": "recipient",
          "type": "address"
        },
        {
          "internalType": "uint256",
          "name": "amount",
          "type": "uint256"
        }
      ],
      "name": "transferFrom",
      "outputs": [
        {
          "internalType": "bool",
          "name": "",
          "type": "bool"
        }
      ],
      "stateMutability": "nonpayable",
      "type": "function"
    },
    {
      "inputs": [
        {
          "internalType": "address",
          "name": "spender",
          "type": "address"
        },
        {
          "internalType": "uint256",
          "name": "amount",
          "type": "uint256"
        }
      ],
      "name": "increaseAllowance",
      "outputs": [
        {
          "internalType": "bool",
          "name": "",
          "type": "bool"
        }
      ],
      "stateMutability": "nonpayable",
      "type": "function"
    },
    {
      "inputs": [
        {
          "internalType": "address",
          "name": "spender",
          "type": "address"
        },
        {
          "internalType": "uint256",
          "name": "amount",
          "type": "uint256"
        }
      ],
      "name": "decreaseAllowance",
      "outputs": [
        {
          "internalType": "bool",
          "name": "",
          "type": "bool"
        }
      ],
      "stateMutability": "nonpayable",
      "type": "function"
    }
  ],
  "bytecode": "0x60806040523480156200001157600080fd5b50604051620023813803806200238183398181016040528101906200003791906200049c565b336000806101000a81548173ffffffffffffffffffffffffffffffffffffffff021916908373ffffffffffffffffffffffffffffffffffffffff16021790555060008054906101000a900473ffffffffffffffffffffffffffffffffffffffff1673ffffffffffffffffffffffffffffffffffffffff16600073ffffffffffffffffffffffffffffffffffffffff167f8be0079c531659141344cd1fd0a4f28419497f9722a3daafe3b4186f6b6457e060405160405180910390a384600190805190602001906200010a929190620001d6565b50836002908051906020019062000123929190620001d6565b5082600360006101000a81548160ff021916908360ff16021790555081600481905550806005819055506004546006600062000164620001ad60201b60201c565b73ffffffffffffffffffffffffffffffffffffffff1673ffffffffffffffffffffffffffffffffffffffff168152602001908152602001600020819055505050505050620005c7565b60008060009054906101000a900473ffffffffffffffffffffffffffffffffffffffff16905090565b828054620001e49062000591565b90600052602060002090601f01602090048101928262000208576000855562000254565b82601f106200022357805160ff191683800117855562000254565b8280016001018555821562000254579182015b828111156200025357825182559160200191906001019062000236565b5b50905062000263919062000267565b5090565b5b808211156200028257600081600090555060010162000268565b5090565b6000604051905090565b600080fd5b600080fd5b600080fd5b600080fd5b6000601f19601f8301169050919050565b7f4e487b7100000000000000000000000000000000000000000000000000000000600052604160045260246000fd5b620002ef82620002a4565b810181811067ffffffffffffffff82111715620003115762000310620002b5565b5b80604052505050565b60006200032662000286565b9050620003348282620002e4565b919050565b600067ffffffffffffffff821115620003575762000356620002b5565b5b6200036282620002a4565b9050602081019050919050565b60005b838110156200038f57808201518184015260208101905062000372565b838111156200039f576000848401525b50505050565b6000620003bc620003b68462000339565b6200031a565b905082815260208101848484011115620003db57620003da6200029f565b5b620003e88482856200036f565b509392505050565b600082601f8301126200040857620004076200029a565b5b81516200041a848260208601620003a5565b91505092915050565b600060ff82169050919050565b6200043b8162000423565b81146200044757600080fd5b50565b6000815190506200045b8162000430565b92915050565b6000819050919050565b620004768162000461565b81146200048257600080fd5b50565b60008151905062000496816200046b565b92915050565b600080600080600060a08688031215620004bb57620004ba62000290565b5b600086015167ffffffffffffffff811115620004dc57620004db62000295565b5b620004ea88828901620003f0565b955050602086015167ffffffffffffffff8111156200050e576200050d62000295565b5b6200051c88828901620003f0565b94505060406200052f888289016200044a565b9350506060620005428882890162000485565b9250506080620005558882890162000485565b9150509295509295909350565b7f4e487b7100000000000000000000000000000000000000000000000000000000600052602260045260246000fd5b60006002820490506001821680620005aa57607f821691505b60208210811415620005c157620005c062000562565b5b50919050565b611daa80620005d76000396000f3fe608060405234801561001057600080fd5b50600436106101165760003560e01c8063893d20e8116100a2578063a457c2d711610071578063a457c2d7146102f9578063a9059cbb14610329578063d5abeb0114610359578063dd62ed3e14610377578063f2fde38b146103a757610116565b8063893d20e81461026f5780638da5cb5b1461028d57806395d89b41146102ab5780639dc29fac146102c957610116565b8063313ce567116100e9578063313ce567146101b757806339509351146101d557806340c10f191461020557806370a0823114610235578063715018a61461026557610116565b806306fdde031461011b578063095ea7b31461013957806318160ddd1461016957806323b872dd14610187575b600080fd5b6101236103c3565b60405161013091906114c2565b60405180910390f35b610153600480360381019061014e919061157d565b610451565b60405161016091906115d8565b60405180910390f35b610171610468565b60405161017e9190611602565b60405180910390f35b6101a1600480360381019061019c919061161d565b61046e565b6040516101ae91906115d8565b60405180910390f35b6101bf6105d7565b6040516101cc919061168c565b60405180910390f35b6101ef60048036038101906101ea919061157d565b6105ea565b6040516101fc91906115d8565b60405180910390f35b61021f600480360381019061021a919061157d565b610688565b60405161022c91906115d8565b60405180910390f35b61024f600480360381019061024a91906116a7565b61072c565b60405161025c9190611602565b60405180910390f35b61026d610744565b005b610277610890565b60405161028491906116e3565b60405180910390f35b61029561089f565b6040516102a291906116e3565b60405180910390f35b6102b36108c8565b6040516102c091906114c2565b60405180910390f35b6102e360048036038101906102de919061157d565b610956565b6040516102f091906115d8565b60405180910390f35b610313600480360381019061030e919061157d565b61096c565b60405161032091906115d8565b60405180910390f35b610343600480360381019061033e919061157d565b610a0a565b60405161035091906115d8565b60405180910390f35b610361610a21565b60405161036e9190611602565b60405180910390f35b610391600480360381019061038c91906116fe565b610a27565b60405161039e9190611602565b60405180910390f35b6103c160048036038101906103bc91906116a7565b610aae565b005b600180546103d09061176d565b80601f01602080910402602001604051908101604052809291908181526020018280546103fc9061176d565b80156104495780601f1061041e57610100808354040283529160200191610449565b820191906000526020600020905b81548152906001019060200180831161042c57829003601f168201915b505050505081565b600061045e338484610b48565b6001905092915050565b60045481565b600081600760008673ffffffffffffffffffffffffffffffffffffffff1673ffffffffffffffffffffffffffffffffffffffff16815260200190815260200160002060003373ffffffffffffffffffffffffffffffffffffffff1673ffffffffffffffffffffffffffffffffffffffff16815260200190815260200160002054101561052f576040517f08c379a000000000000000000000000000000000000000000000000000000000815260040161052690611811565b60405180910390fd5b61053a848484610d13565b6105cc843384600760008973ffffffffffffffffffffffffffffffffffffffff1673ffffffffffffffffffffffffffffffffffffffff16815260200190815260200160002060003373ffffffffffffffffffffffffffffffffffffffff1673ffffffffffffffffffffffffffffffffffffffff168152602001908152602001600020546105c79190611860565b610b48565b600190509392505050565b600360009054906101000a900460ff1681565b600061067e338484600760003373ffffffffffffffffffffffffffffffffffffffff1673ffffffffffffffffffffffffffffffffffffffff16815260200190815260200160002060008873ffffffffffffffffffffffffffffffffffffffff1673ffffffffffffffffffffffffffffffffffffffff168152602001908152602001600020546106799190611894565b610b48565b6001905092915050565b60003373ffffffffffffffffffffffffffffffffffffffff1660008054906101000a900473ffffffffffffffffffffffffffffffffffffffff1673ffffffffffffffffffffffffffffffffffffffff1614610718576040517f08c379a000000000000000000000000000000000000000000000000000000000815260040161070f90611936565b60405180910390fd5b6107228383610ffd565b6001905092915050565b60066020528060005260406000206000915090505481565b3373ffffffffffffffffffffffffffffffffffffffff1660008054906101000a900473ffffffffffffffffffffffffffffffffffffffff1673ffffffffffffffffffffffffffffffffffffffff16146107d2576040517f08c379a00000000000000000000000000000000000000000000000000000000081526004016107c990611936565b60405180910390fd5b600073ffffffffffffffffffffffffffffffffffffffff1660008054906101000a900473ffffffffffffffffffffffffffffffffffffffff1673ffffffffffffffffffffffffffffffffffffffff167f8be0079c531659141344cd1fd0a4f28419497f9722a3daafe3b4186f6b6457e060405160405180910390a360008060006101000a81548173ffffffffffffffffffffffffffffffffffffffff021916908373ffffffffffffffffffffffffffffffffffffffff160217905550565b600061089a61089f565b905090565b60008060009054906101000a900473ffffffffffffffffffffffffffffffffffffffff16905090565b600280546108d59061176d565b80601f01602080910402602001604051908101604052809291908181526020018280546109019061176d565b801561094e5780601f106109235761010080835404028352916020019161094e565b820191906000526020600020905b81548152906001019060200180831161093157829003601f168201915b505050505081565b60006109628383611195565b6001905092915050565b6000610a00338484600760003373ffffffffffffffffffffffffffffffffffffffff1673ffffffffffffffffffffffffffffffffffffffff16815260200190815260200160002060008873ffffffffffffffffffffffffffffffffffffffff1673ffffffffffffffffffffffffffffffffffffffff168152602001908152602001600020546109fb9190611860565b610b48565b6001905092915050565b6000610a17338484610d13565b6001905092915050565b60055481565b6000600760008473ffffffffffffffffffffffffffffffffffffffff1673ffffffffffffffffffffffffffffffffffffffff16815260200190815260200160002060008373ffffffffffffffffffffffffffffffffffffffff1673ffffffffffffffffffffffffffffffffffffffff16815260200190815260200160002054905092915050565b3373ffffffffffffffffffffffffffffffffffffffff1660008054906101000a900473ffffffffffffffffffffffffffffffffffffffff1673ffffffffffffffffffffffffffffffffffffffff1614610b3c576040517f08c379a0000000000000000000000000000000000000000000000000000000008152600401610b3390611936565b60405180910390fd5b610b45816112fc565b50565b600073ffffffffffffffffffffffffffffffffffffffff168373ffffffffffffffffffffffffffffffffffffffff161415610bb8576040517f08c379a0000000000000000000000000000000000000000000000000000000008152600401610baf906119c8565b60405180910390fd5b600073ffffffffffffffffffffffffffffffffffffffff168273ffffffffffffffffffffffffffffffffffffffff161415610c28576040517f08c379a0000000000000000000000000000000000000000000000000000000008152600401610c1f90611a5a565b60405180910390fd5b80600760008573ffffffffffffffffffffffffffffffffffffffff1673ffffffffffffffffffffffffffffffffffffffff16815260200190815260200160002060008473ffffffffffffffffffffffffffffffffffffffff1673ffffffffffffffffffffffffffffffffffffffff168152602001908152602001600020819055508173ffffffffffffffffffffffffffffffffffffffff168373ffffffffffffffffffffffffffffffffffffffff167f8c5be1e5ebec7d5bd14f71427d1e84f3dd0314c0f7b2291e5b200ac8c7c3b92583604051610d069190611602565b60405180910390a3505050565b82600073ffffffffffffffffffffffffffffffffffffffff168173ffffffffffffffffffffffffffffffffffffffff161415610d84576040517f08c379a0000000000000000000000000000000000000000000000000000000008152600401610d7b90611ac6565b60405180910390fd5b600073ffffffffffffffffffffffffffffffffffffffff168373ffffffffffffffffffffffffffffffffffffffff161415610df4576040517f08c379a0000000000000000000000000000000000000000000000000000000008152600401610deb90611b32565b60405180910390fd5b81600660008673ffffffffffffffffffffffffffffffffffffffff1673ffffffffffffffffffffffffffffffffffffffff168152602001908152602001600020541015610e76576040517f08c379a0000000000000000000000000000000000000000000000000000000008152600401610e6d90611bc4565b60405180910390fd5b81600660008673ffffffffffffffffffffffffffffffffffffffff1673ffffffffffffffffffffffffffffffffffffffff16815260200190815260200160002054610ec19190611860565b600660008673ffffffffffffffffffffffffffffffffffffffff1673ffffffffffffffffffffffffffffffffffffffff1681526020019081526020016000208190555081600660008573ffffffffffffffffffffffffffffffffffffffff1673ffffffffffffffffffffffffffffffffffffffff16815260200190815260200160002054610f4f9190611894565b600660008573ffffffffffffffffffffffffffffffffffffffff1673ffffffffffffffffffffffffffffffffffffffff168152602001908152602001600020819055508273ffffffffffffffffffffffffffffffffffffffff168473ffffffffffffffffffffffffffffffffffffffff167fddf252ad1be2c89b69c2b068fc378daa952ba7f163c4a11628f55a4df523b3ef84604051610fef9190611602565b60405180910390a350505050565b81600073ffffffffffffffffffffffffffffffffffffffff168173ffffffffffffffffffffffffffffffffffffffff16141561106e576040517f08c379a000000000000000000000000000000000000000000000000000000000815260040161106590611ac6565b60405180910390fd5b8160045461107c9190611894565b60055410156110c0576040517f08c379a00000000000000000000000000000000000000000000000000000000081526004016110b790611c30565b60405180910390fd5b816004546110ce9190611894565b60048190555081600660008573ffffffffffffffffffffffffffffffffffffffff1673ffffffffffffffffffffffffffffffffffffffff16815260200190815260200160002060008282546111239190611894565b925050819055508273ffffffffffffffffffffffffffffffffffffffff16600073ffffffffffffffffffffffffffffffffffffffff167fddf252ad1be2c89b69c2b068fc378daa952ba7f163c4a11628f55a4df523b3ef846040516111889190611602565b60405180910390a3505050565b81600073ffffffffffffffffffffffffffffffffffffffff168173ffffffffffffffffffffffffffffffffffffffff161415611206576040517f08c379a00000000000000000000000000000000000000000000000000000000081526004016111fd90611ac6565b60405180910390fd5b81600660008573ffffffffffffffffffffffffffffffffffffffff1673ffffffffffffffffffffffffffffffffffffffff168152602001908152602001600020541015611288576040517f08c379a000000000000000000000000000000000000000000000000000000000815260040161127f90611cc2565b60405180910390fd5b81600660008573ffffffffffffffffffffffffffffffffffffffff1673ffffffffffffffffffffffffffffffffffffffff16815260200190815260200160002060008282546112d79190611860565b9250508190555081600460008282546112f09190611860565b92505081905550505050565b600073ffffffffffffffffffffffffffffffffffffffff168173ffffffffffffffffffffffffffffffffffffffff16141561136c576040517f08c379a000000000000000000000000000000000000000000000000000000000815260040161136390611d54565b60405180910390fd5b8073ffffffffffffffffffffffffffffffffffffffff1660008054906101000a900473ffffffffffffffffffffffffffffffffffffffff1673ffffffffffffffffffffffffffffffffffffffff167f8be0079c531659141344cd1fd0a4f28419497f9722a3daafe3b4186f6b6457e060405160405180910390a3806000806101000a81548173ffffffffffffffffffffffffffffffffffffffff021916908373ffffffffffffffffffffffffffffffffffffffff16021790555050565b600081519050919050565b600082825260208201905092915050565b60005b83811015611463578082015181840152602081019050611448565b83811115611472576000848401525b50505050565b6000601f19601f8301169050919050565b600061149482611429565b61149e8185611434565b93506114ae818560208601611445565b6114b781611478565b840191505092915050565b600060208201905081810360008301526114dc8184611489565b905092915050565b600080fd5b600073ffffffffffffffffffffffffffffffffffffffff82169050919050565b6000611514826114e9565b9050919050565b61152481611509565b811461152f57600080fd5b50565b6000813590506115418161151b565b92915050565b6000819050919050565b61155a81611547565b811461156557600080fd5b50565b60008135905061157781611551565b92915050565b60008060408385031215611594576115936114e4565b5b60006115a285828601611532565b92505060206115b385828601611568565b9150509250929050565b60008115159050919050565b6115d2816115bd565b82525050565b60006020820190506115ed60008301846115c9565b92915050565b6115fc81611547565b82525050565b600060208201905061161760008301846115f3565b92915050565b600080600060608486031215611636576116356114e4565b5b600061164486828701611532565b935050602061165586828701611532565b925050604061166686828701611568565b9150509250925092565b600060ff82169050919050565b61168681611670565b82525050565b60006020820190506116a1600083018461167d565b92915050565b6000602082840312156116bd576116bc6114e4565b5b60006116cb84828501611532565b91505092915050565b6116dd81611509565b82525050565b60006020820190506116f860008301846116d4565b92915050565b60008060408385031215611715576117146114e4565b5b600061172385828601611532565b925050602061173485828601611532565b9150509250929050565b7f4e487b7100000000000000000000000000000000000000000000000000000000600052602260045260246000fd5b6000600282049050600182168061178557607f821691505b602082108114156117995761179861173e565b5b50919050565b7f596f752063616e6e6f74207370656e642074686174206d756368206f6e20746860008201527f6973206163636f756e7400000000000000000000000000000000000000000000602082015250565b60006117fb602a83611434565b91506118068261179f565b604082019050919050565b6000602082019050818103600083015261182a816117ee565b9050919050565b7f4e487b7100000000000000000000000000000000000000000000000000000000600052601160045260246000fd5b600061186b82611547565b915061187683611547565b92508282101561188957611888611831565b5b828203905092915050565b600061189f82611547565b91506118aa83611547565b9250827fffffffffffffffffffffffffffffffffffffffffffffffffffffffffffffffff038211156118df576118de611831565b5b828201905092915050565b7f54686973206973207374726963746c7920666f72206f776e6572206f6e6c7900600082015250565b6000611920601f83611434565b915061192b826118ea565b602082019050919050565b6000602082019050818103600083015261194f81611913565b9050919050565b7f446576546f6b656e3a20617070726f76652063616e6e6f7420626520646f6e6560008201527f2066726f6d207a65726f20616464726573730000000000000000000000000000602082015250565b60006119b2603283611434565b91506119bd82611956565b604082019050919050565b600060208201905081810360008301526119e1816119a5565b9050919050565b7f446576546f6b656e3a20617070726f76652063616e6e6f7420626520746f207a60008201527f65726f2061646472657373000000000000000000000000000000000000000000602082015250565b6000611a44602b83611434565b9150611a4f826119e8565b604082019050919050565b60006020820190508181036000830152611a7381611a37565b9050919050565b7f456d7074792061646472657373206973206e6f7420616c6c6f77656400000000600082015250565b6000611ab0601c83611434565b9150611abb82611a7a565b602082019050919050565b60006020820190508181036000830152611adf81611aa3565b9050919050565b7f5472616e7366657220746f207a65726f20616464726573730000000000000000600082015250565b6000611b1c601883611434565b9150611b2782611ae6565b602082019050919050565b60006020820190508181036000830152611b4b81611b0f565b9050919050565b7f43616e74207472616e73666572206d6f7265207468616e20796f75722061636360008201527f6f756e7420686f6c647300000000000000000000000000000000000000000000602082015250565b6000611bae602a83611434565b9150611bb982611b52565b604082019050919050565b60006020820190508181036000830152611bdd81611ba1565b9050919050565b7f596f75277665207265616368656420746865206d617820737570706c79000000600082015250565b6000611c1a601d83611434565b9150611c2582611be4565b602082019050919050565b60006020820190508181036000830152611c4981611c0d565b9050919050565b7f43616e6e6f74206275726e206d6f7265207468616e20746865206163636f756e60008201527f74206f776e730000000000000000000000000000000000000000000000000000602082015250565b6000611cac602683611434565b9150611cb782611c50565b604082019050919050565b60006020820190508181036000830152611cdb81611c9f565b9050919050565b7f4f776e61626c653a206e6577206f776e657220697320746865207a65726f206160008201527f6464726573730000000000000000000000000000000000000000000000000000602082015250565b6000611d3e602683611434565b9150611d4982611ce2565b604082019050919050565b60006020820190508181036000830152611d6d81611d31565b905091905056fea264697066735822122044b4e9128ca04e01aafe1481951f2e6c474cc4e40487eacc0c7c8334b2dcd6fc64736f6c63430008090033",
  "immutableReferences": {},
  "source": "// SPDX-License-Identifier: MIT\r\npragma solidity ^0.8.4;\r\n\r\nimport './Ownable.sol';\r\nimport './IBEP20.sol';\r\ncontract Token is Ownable, IBEP20 {\r\n\r\n  string public name;\r\n  string public symbol;\r\n  uint8 public decimals;\r\n  uint256 public totalSupply;\r\n  uint256 public maxSupply;\r\n\r\n  mapping(address => uint256) public balanceOf;\r\n  mapping(address => mapping(address => uint256)) private _allowances;\r\n\r\n  constructor(string memory _name, string memory _symbol, uint8 _decimals, uint256 _totalSupply, uint256 _maxSupply){\r\n    name = _name;\r\n    symbol = _symbol;\r\n    decimals = _decimals;\r\n    totalSupply = _totalSupply;\r\n    maxSupply = _maxSupply;\r\n\r\n    balanceOf[owner()] = totalSupply;\r\n  }\r\n\r\n  modifier notEmptyAddress(address account) {\r\n        require(\r\n            account != address(0),\r\n            \"Empty address is not allowed\"\r\n        );\r\n        _;\r\n  }\r\n\r\n\r\n function mint(address account, uint256 amount) onlyOwner external returns (bool) {\r\n  _mint(account, amount);\r\n  return true;\r\n }\r\n function burn(address account, uint256 amount) external  returns (bool) {\r\n   _burn(account, amount);\r\n   return true;\r\n }\r\n\r\n function _mint(address account, uint256 amount) notEmptyAddress(account) internal {\r\n    require(maxSupply >= (totalSupply+amount), \"You've reached the max supply\");\r\n    // Increase total supply\r\n    totalSupply = totalSupply + amount;\r\n    // Add amount to the account balance using the balance mapping\r\n    balanceOf[account] += amount;\r\n    // Emit our event to log the action\r\n    emit Transfer(address(0), account, amount);\r\n  }\r\n\r\n\r\n   function _burn(address account, uint256 amount) notEmptyAddress(account) internal {\r\n      require(balanceOf[account] >= amount, \"Cannot burn more than the account owns\");\r\n\r\n      // Remove the amount from the account balance\r\n      balanceOf[account] -= amount;\r\n      // Decrease totalSupply\r\n      totalSupply -= amount;\r\n      // Emit event, use zero address as reciever\r\n      // emit Transfer(account, address(0), amount);\r\n    }\r\n\r\n\r\n  function _transfer(address sender, address recipient, uint256 amount) notEmptyAddress(sender) internal {\r\n    require(recipient != address(0), \"Transfer to zero address\");\r\n    require(balanceOf[sender] >= amount, \"Cant transfer more than your account holds\");\r\n\r\n    balanceOf[sender] = balanceOf[sender] - amount;\r\n    balanceOf[recipient] = balanceOf[recipient] + amount;\r\n\r\n    emit Transfer(sender, recipient, amount);\r\n  }\r\n\r\n\r\n  function transfer(address recipient, uint256 amount) external returns (bool) {\r\n    _transfer(msg.sender, recipient, amount);\r\n    return true;\r\n  }\r\n\r\n  function getOwner() external view returns (address) {\r\n    return owner();\r\n  }\r\n\r\n  function allowance(address owner, address spender) external view returns(uint256){\r\n     return _allowances[owner][spender];\r\n  }\r\n\r\n  function approve(address spender, uint256 amount) external returns (bool) {\r\n     _approve(msg.sender, spender, amount);\r\n     return true;\r\n   }\r\n\r\n   function _approve(address owner, address spender, uint256 amount) internal {\r\n      require(owner != address(0), \"DevToken: approve cannot be done from zero address\");\r\n      require(spender != address(0), \"DevToken: approve cannot be to zero address\");\r\n      // Set the allowance of the spender address at the Owner mapping over accounts to the amount\r\n      _allowances[owner][spender] = amount;\r\n\r\n      emit Approval(owner,spender,amount);\r\n    }\r\n\r\n    function transferFrom(address spender, address recipient, uint256 amount) external returns(bool){\r\n      // Make sure spender is allowed the amount \r\n      require(_allowances[spender][msg.sender] >= amount, \"You cannot spend that much on this account\");\r\n      // Transfer first\r\n      _transfer(spender, recipient, amount);\r\n      // Reduce current allowance so a user cannot respend\r\n      _approve(spender, msg.sender, _allowances[spender][msg.sender] - amount);\r\n      return true;\r\n    }\r\n\r\n    function increaseAllowance(address spender, uint256 amount) public returns (bool) {\r\n      _approve(msg.sender, spender, _allowances[msg.sender][spender]+amount);\r\n      return true;\r\n    }\r\n\r\n    function decreaseAllowance(address spender, uint256 amount) public returns (bool) {\r\n      _approve(msg.sender, spender, _allowances[msg.sender][spender]-amount);\r\n      return true;\r\n    }\r\n\r\n\r\n}\r\n",
  "sourcePath": "C:\\programming\\workspace\\solidity\\nft-token\\contracts\\Token.sol",
  "compiler": {
    "name": "solc",
    "version": "0.8.9+commit.e5eed63a.Emscripten.clang"
  },
  "schemaVersion": "3.4.3",
  "updatedAt": "2021-10-20T07:47:02.033Z",
  "networkType": "ethereum",
  "devdoc": {
    "kind": "dev",
    "methods": {},
    "version": 1
  },
  "userdoc": {
    "kind": "user",
    "methods": {},
    "version": 1
  }
}